:020000040800F2
:1000000018050020A9010008631B00083319000827
:10001000611B00082905000861220008000000009B
:10002000000000000000000000000000871B000826
:100030002B05000800000000851B0008DB1B0008E2
:10004000C3010008C3010008C3010008C301000880
:10005000C3010008C3010008C3010008C301000870
:10006000C3010008C3010008C3010008C301000860
:10007000C3010008C3010008C3010008C301000850
:10008000C3010008C3010008C3010008000000000C
:10009000000000000000000000000000C301000894
:1000A000BD1C0008E11C0008D51C0008C91C000884
:1000B000ED1C0008C3010008C3010008C3010008CB
:1000C000C3010008C3010008C3010008C301000800
:1000D000C3010008C3010008C301000800000000BC
:1000E000C3010008C3010008C301000800000000AC
:1000F000000000000000000000000000C301000834
:1001000000000000C3010008C3010008C30100088B
:1001100000000000000000000000000000000000DF
:10012000C3010008C3010008C3010008C30100089F
:10013000C3010008000000000000000000000000F3
:10014000000000000000000000000000C3010008E3
:10015000C3010008C3010008C3010008C30100086F
:10016000C3010008C30100080000000000000000F7
:10017000000000000000000000000000000000007F
:1001800000000000C30100080000000000000000A3
:10019000C3010008DFF80CD000F0C0F800480047A9
:1001A0008D220008180500200648804706480047B1
:1001B000FEE7FEE7FEE7FEE7FEE7FEE7FEE7FEE717
:1001C000FEE7FEE7691C0008950100082DE9F05FD5
:1001D0000546002092469B468846064681464024B6
:1001E0001BE0284641464746224600F04EF853465B
:1001F0005A46C01A914110D311461846224600F0C3
:1002000035F82D1A67EB01084F46224601200021E0
:1002100000F02CF817EB00094E41201EA4F1010458
:10022000DFDC484631462A464346BDE8F09FD2B25D
:1002300001E000F8012B491EFBD270470022F6E7CF
:1002400010B513460A4604461946FFF7F0FF20464C
:1002500010BD70B5064602F005F8046805460A228E
:100260000021304600F021F82C6070BD202A04DB0C
:10027000203A00FA02F1002070479140C2F12003B9
:1002800020FA03F3194390407047202A04DB203AF8
:1002900021FA02F00021704721FA02F3D040C2F1A6
:1002A000200291400843194670472DE9F0479146D6
:1002B0000F4680460446002614F8015B2DB100F07D
:1002C0003FF80068405DC007F6D12B2D02D02D2DE0
:1002D00018D0641E4A463946204600F035F827B14A
:1002E0003968A14201D1C7F8008071054FF00204BE
:1002F0000BD54042002803DD01F0B4FF0460A007E5
:10030000BDE8F08746F48066E4E70028F8DA01F0FB
:10031000A9FF04606FF00040F2E70000064C074DB3
:1003200006E0E06840F0010394E8070098471034C5
:10033000AC42F6D3FFF732FFF82300081824000878
:1003400000487047F42300082DE9F05F82460078EA
:10035000002715468B460AF10104B946302801D022
:100360009DB113E014F8010B0127782803D0582819
:1003700001D045B10AE00DB1102D07D1002710259D
:1003800014F8010B02E0082500E00A250026B0461B
:100390000EE005FB080005FB06F1012701EB104606
:1003A0001FFA80F8B6F5803F00D3B94614F8010B68
:1003B000294600F018F80028EBDABBF1000F05D051
:1003C0000FB1641E00E05446CBF80040B9F1000FB5
:1003D00006D001F047FF02210160C81EBDE8F09F72
:1003E00048EA0640FAE73A2800D2303820F02002E6
:1003F000412A01D3A2F13700884201D34FF0FF30E8
:1004000070470000454910B54A6822F440324A60FE
:100410004A6843681A434A6001684A6822F4807255
:100420004A6001684A68036942EA03224A60016837
:100430004A6822F040724A6001684A6883681A4339
:100440004A6001688A6822F400628A6001688A68EA
:10045000C3681A438A60816A6FF07062D142016892
:100460008A6822F070628A6001688A680CD0836AA8
:100470001A438A6001688A6822F040528A600168E3
:100480008A68C36A1A4301E022F040528A60016818
:100490008A6822F002028A6001688A68836942EAF7
:1004A00043028A60016A002901684A680FD042F459
:1004B00000624A6001684A6822F460424A6001684A
:1004C0004A68174C436A04EB43331A4301E022F4B1
:1004D00000624A600168CA6A22F47002CA62016856
:1004E000CA6A838B0F4C04EB03531A43CA62016838
:1004F0008A6822F400728A6001688A68036B42EAA3
:1005000043228A6001688A6822F480628A600168F6
:100510008A68406942EA8020886010BD002301405B
:1005200000E0FFFF0000F0FFFEE7704778B5002411
:10053000009490F83C20012A19D0012280F83C2038
:100540000A6807230568092A13D9EE680A3A02EBFC
:10055000420293409E43EE600B788A680A3B03EBAD
:1005600043039A400368DD682A43DA6010E0022002
:1005700078BD2E6902EB420293409E432E610B78B8
:100580008A6803EB43039A4003681D692A431A6192
:100590004A681F23072A13D205686E6B521E02EBAE
:1005A000820293409E436E630B790A885B1E92B26F
:1005B00003EB83039A4003685D6B2A435A6327E089
:1005C00005680D2A12D22E6BD21F02EB82029340D5
:1005D0009E432E630B790A88DB1F92B203EB8303E1
:1005E0009A4003681D6B2A431A6311E0EE6A0D3AC4
:1005F00002EB820293409E43EE620B790A880D3B28
:1006000092B203EB83039A400368DD6A2A43DA62FD
:10061000164B0568144A9D4206D10D68122D03D170
:10062000556845F48005556005689D4218D10B68F2
:10063000102B01D0112B13D1536843F400035360E6
:10064000096810290CD10A490A4A0968B1FBF2F17C
:1006500001EB8101490000E0491E00910029FBD116
:1006600080F83C40002078BD00230140002001407C
:100670000C00002040420F000068C06C704770B54D
:1006800004004FF0000503D0206C002610B107E0F5
:10069000012070BD666484F83C60204600F01AF8C2
:1006A000206CC00610D4206C20F4885040F002006A
:1006B00020642046FFF7A6FE6664206C20F002004E
:1006C00040F00100206400E0012584F83C602846E9
:1006D00070BD000010B586B0044614216846FFF7CF
:1006E000ADFD1149206888421CD1104800210268E4
:1006F00042F480720260006800F4807005900B483C
:100700001438026842F001020260006800F0010043
:100710000590402000900320CDE90101694604487E
:1007200000F0E8F806B010BD002001404438024057
:10073000000002402DE9F041044600680D46816842
:100740004FF0000749050BD58068C00508D5206C1F
:1007500040F02000206484F83C700120BDE8F08166
:1007600000F092F906460FE0681C0DD025B100F0AC
:100770008BF9801BA84207D9206C40F0040020644C
:1007800084F83C700320E9E7206800688007EBD517
:1007900021686FF012000860206C40F40070206443
:1007A0002068816811F0405F13D1A16989B9C16ADD
:1007B00011F4700F02D0806840050AD4206C20F438
:1007C00080702064206CC00403D4206C40F00100D1
:1007D00020640020C2E7000018B50021009190F8C5
:1007E0003C20012A07D0012280F83C20026893684F
:1007F000DB0702D011E0022018BD936843F001032B
:100800009360204A204B1268B2FBF3F202EB4202E3
:1008100000E0521E0092002AFBD102689368DB07B9
:100820002DD0036C40F20164A34343F4807303644E
:1008300053685B0505D5036C23F4005343F48053E0
:100840000364036CDB0404D5436C23F006034364A8
:1008500000E0416480F83C100C496FF02203136003
:1008600049680068C90602D00949884207D18168F1
:1008700011F0405F03D1816841F080418160002028
:1008800018BD00000C00002040420F000023014072
:100890000020014090F83C1001290CD0012180F883
:1008A0003C1001688A6822F001028A600168896848
:1008B000C90702D007E002207047016C21F488517B
:1008C00041F001010164002180F83C1008467047A6
:1008D00070B5044600F0D8F80546601C02D0044804
:1008E0000078044400F0D0F8401BA042FAD370BD59
:1008F000000000202DE9F84FDFF860B100224FF032
:1009000001084FF0030A4FF00F090BF1040E00BF6E
:100910000B6808FA02F42340A3426ED14D68022D01
:1009200001D0122D0ED1D50800EB850CDCF820503B
:100930005607F70E09FA07F6B5430E69BE402E4377
:10094000CCF82060066855000F790AFA05FC07F01C
:10095000030726EA0C06AF40374307604E68012EB6
:1009600005D0022E03D0112E01D0122E0ED1866892
:10097000CF6826EA0C06AF40374387604668A64337
:100980000C79C4F30014944034434460C6688C6806
:1009900026EA0C06AC403443C4604C68E40056D5EB
:1009A0002F4C256845F480452560246822F0030516
:1009B00004F4804400942B4C2E19D6F8084895076F
:1009C0002F0F09FA07F5AC43274DA84201D10025A6
:1009D00015E0264DA84201D1012510E0244DA84282
:1009E00001D102250BE0234DA84201D1032506E0E9
:1009F000214DA84202D1042501E028E00725BD4091
:100A00002543C6F80858DBF800405D464E689C4315
:100A1000F60300D51C432C60DEF8004075464E6896
:100A20009C43B60300D51C432C600C4D08352C6844
:100A30004E689C43F60200D51C432C60074D0C35D4
:100A40002C684E689C43B60200D51C432C60521C97
:100A5000102AFFF45DAFBDE8F88F0000003C0140B4
:100A600044380240003001400000024000040240CF
:100A700000080240000C0240001002400AB18161EF
:100A800070470904FBE700000148806870470000D8
:100A9000000000200248816802781144816070479C
:100AA000000000200B4810B5016841F4007101609E
:100AB000016841F480610160016841F48071016066
:100AC000032000F06FF8002000F006F800F024F892
:100AD000002010BD003C024070B50D4D04464FF49F
:100AE0007A712878B1FBF0F00A490968B1FBF0F09F
:100AF00000F0E0FA48B9102C07D200222146501E1F
:100B000000F030F800206C6070BD012070BD000066
:100B1000000000200C0000200B4882B0016841F466
:100B200080410160006800F4804000900648001F8A
:100B3000016841F080510160006800F08050009031
:100B4000072002B000F02EB84438024000F01F0227
:100B5000012191404009800000F1E020C0F800111F
:100B600070470000F0B40E4B1B680C46C3F3022321
:100B7000C3F10705042D00D90425191D072901D249
:100B8000002300E0DB1E012606FA05F1491E214084
:100B900099409E40761E16403143F0BC00F0E2BF03
:100BA0000CED00E0064900F0070208684FF6FF036D
:100BB000184040EA0220034A1043086070470000D2
:100BC0000CED00E00000FA052DE9F0470E460500A7
:100BD00065D0DFF81481D8F80000F7B200F00F00FC
:100BE000B04207D288F80070D8F8000000F00F007B
:100BF000B04254D128683D4C810712D5400703D537
:100C0000206840F4E05020602878000703D5206871
:100C100040F4604020602068A96820F0F00008439C
:100C200020602878C0072DD030496868083901282D
:100C300012D0022813D0032811D00968890700298F
:100C40002DDA216821F0030101432160FFF71CFF29
:100C5000814641F2883A0EE009688903EFE70968A6
:100C60008901ECE7FFF710FFA0EB0901514502D91C
:100C70000320BDE8F0872068696800F00C00B0EB45
:100C8000810FEFD1D8F80010404601F00F01B142BA
:100C900007D90770006800F00F00B04201D00120B2
:100CA000E7E72878400705D52068E96820F4E05098
:100CB000084320602878000706D52068296920F4B9
:100CC000604040EAC100206000F036F82168084A20
:100CD000C1F30311515CC840064908600020FFF7CA
:100CE000FBFE0020C5E70000003C0240083802403F
:100CF000582300080C0000200448054900680968D2
:100D0000044AC1F38221515CC84070470C000020A6
:100D1000083802406823000804480549006809684B
:100D2000044AC1F34231515CC84070470C000020B6
:100D30000838024068230008154810B5006810F014
:100D40000C02144813D04110042A0FD0082A0ED1E7
:100D50000F4C241F2268236802F03F025B0207D574
:100D60002068C0F38810A0FB010106E0084610BD12
:100D70002168C1F38811A1FB00010023FFF726FAC7
:100D80002168C1F30141491C4900B0FBF1F010BDDD
:100D9000083802400024F4002DE9F84F050076D011
:100DA0002878DFF8F8B2BE4CC00749D0DBF8001055
:100DB0005846C1F38101012908D00068C0F38100C1
:100DC00002280AD1201D0068400206D52068800351
:100DD00036D568680028E2D032E06868B0F5803F18
:100DE00010D0B0F5A02F206810D020F48030206003
:100DF000206820F4802020606868A0B1FFF744FEDE
:100E000006460CE0206840F48030F4E740F480208F
:100E10002060F7E7FFF738FE801B642873D820684E
:100E20008003F7D50CE0FFF72FFE064605E000BF74
:100E3000FFF72AFE801B6428F0D820688003F7D4CF
:100E40002878DFF8608280074FF000093ED5DBF894
:100E50000010584611F00C0F09D00068C0F3810053
:100E600002280BD18D48001F0068400206D420687C
:100E7000800715D5E868012809D111E0E868B8B104
:100E80000120C8F80000FFF7FFFD064605E002E17B
:100E9000FFF7FAFD801B0228C0D820688007F7D52D
:100EA0002068296920F0F80040EAC10020600DE0C8
:100EB000C8F80090FFF7E8FD064604E0FFF7E4FD00
:100EC000801B02281FD820688007F7D428780007E5
:100ED00022D5724E744869696C3671B10121016086
:100EE000FFF7D2FD074604E0FFF7CEFDC01B022846
:100EF00009D830688007F7D50EE0C0F80090FFF7FA
:100F0000C3FD074605E083E0FFF7BEFDC01B0228D6
:100F10007ED830688007F7D42878400768D5DFF896
:100F20007CA100270AF1380ADAF80000C0000BD4CF
:100F3000DAF8001041F08051CAF80010DAF8000029
:100F4000012700F080500090584E3068C00510D442
:100F5000306840F480703060FFF796FD009005E047
:100F6000FFF792FD0099401A022851D83068C00559
:100F7000F6D54A4EA868683601280FD00528306893
:100F800010D020F001003060306820F004003060A4
:100F9000A868B8B1FFF778FD00900FE0306840F026
:100FA0000100F4E740F004003060F7E7FFF76CFD64
:100FB0000099411A41F28830814264D83068800734
:100FC000F4D50EE0FFF760FD009007E0FFF75CFD51
:100FD0000099411A41F28830814254D83068800724
:100FE000F4D42FB1DAF8001021F08051CAF80010C3
:100FF000A869C0B3DBF80010C1F3810102294AD00F
:101000000228484607D0C8F86000FFF73DFD00E021
:1010100039E005463AE04746C8F86000FFF734FD7E
:10102000064604E0FFF730FD801B02282BD820681D
:101030008001F7D4D5E907010843A96A1C4A490889
:1010400002EB01416A6A41EA8211084395F82C10CB
:1010500040EA01611148001F016001203866FFF776
:1010600013FD054605E014E0FFF70EFD401B0228C6
:1010700009D820688001F7D50BE000BFFFF704FD19
:10108000401B022802D90320BDE8F88F20688001A8
:10109000F4D40020F8E70120F6E700000838024009
:1010A0000038024000004742800E47420070004076
:1010B0000000FFFF10B5401EB0F1807F01D301207A
:1010C00010BD4FF0E02460610F21601700F04AFD71
:1010D0000020A06107202061002010BD70477047EC
:1010E00010B590F83820012A25D0012280F8382048
:1010F000CA688C6822F4407222434C6822F48062F1
:1011000022430C6822F4006222430C6922F48052CC
:1011100022434C6922F4005222438C6922F480421B
:10112000224322F40041026800232143516480F8E5
:101130003830002010BD022010BD30B590F83820A6
:10114000012A20D0012280F83820022380F839308B
:1011500003685C6824F070045C6003685C680D6878
:101160002C435C6003689C6824F080049C600368E6
:101170009C6849680C439C6080F83920002180F805
:101180003810084630BD022030BD10B5040003D031
:1011900094F8390010B107E0012010BD002084F858
:1011A0003800204600F00CF8022084F83900211D98
:1011B000206800F0A1FD012084F83900002010BD56
:1011C00008B500682149884227D12148016841F0CB
:1011D000010101600068002200F00100009011464A
:1011E0001820FFF7BFFC1820FFF7B0FC00221146C3
:1011F0001920FFF7B7FC1920FFF7A8FC00221146C1
:101200001A20FFF7AFFC1A20FFF7A0FC00221146BE
:101210001B20FFF7A7FC1B2012E0B0F1804F13D179
:101220000B48001F016841F00101016000680022C5
:1012300000F00100009011461C20FFF793FC1C20D9
:10124000BDE80840FFF782BC08BD00000000014077
:101250004438024070B5044690F83800012817D091
:10126000012584F83850022084F83900206882680B
:1012700022F0770222F47F4282600868502837D03B
:101280000DDC202859D005DC88B3102841D151E06D
:10129000022070BD302853D040283AD13FE060286A
:1012A0002ED070280BD0B0F5805F03D0B0F5005F72
:1012B0002FD110E02068816821F0070115E0CB688C
:1012C000D1E90121206800F06AFD2168886840F0BA
:1012D000770088601DE0CB68D1E90121206800F02B
:1012E0005EFD2068816841F48041816011E01EE06C
:1012F000CA684968206800F007FE5021206806E0AF
:10130000CA684968206800F010FE6021206800F07B
:1013100050FD84F83950002084F8380070BDCA6848
:101320004968206800F0F0FD40212068EFE70021C7
:101330002068ECE710212068E9E720212068E6E733
:1013400030212068E3E7704770B504460068016902
:101350004FF00005C943890715D4C168C9438907FF
:1013600011D4E91E01610120207620688069800780
:10137000204602D0FFF7E7FF04E000F0FEF8204629
:1013800000F09CF9257620680169C943490717D404
:10139000C168C943490713D46FF0040101610220F9
:1013A00020762068806910F4407F204602D0FFF745
:1013B000CAFF04E000F0E1F8204600F07FF925764E
:1013C00020680169C943090716D4C168C9430907E0
:1013D00012D46FF008010161042020762068C069F2
:1013E0008007204602D0FFF7AEFF04E000F0C5F80A
:1013F000204600F063F9257620680169C943C906D3
:1014000017D4C168C943C90613D46FF01001016134
:10141000082020762068C06910F4407F204602D062
:10142000FFF791FF04E000F0A8F8204600F046F92D
:10143000257620680169C943C90708D1C168C94335
:10144000C90704D1891E0161204600F051F92068C6
:101450000169C943090609D4C168C943090605D40D
:101460006FF0800101612046FFF738FE20680169B6
:10147000C943490609D4C168C943490605D46FF078
:1014800040010161204600F034F920680169C94338
:1014900089060BD4C168C943890607D46FF02001BF
:1014A00001612046BDE87040FFF719BE70BD000025
:1014B000F0B587B0044614216846FEF7BFFE164F0C
:1014C0002668002215490224032501231448BE4240
:1014D0000DD10E6846F001060E600968049301F014
:1014E000010105914FF47061CDE900140DE0B6F1F2
:1014F000804F0FD10E6846F001060E600968CDE9F5
:10150000003401F00101CDE90431CDE9022569463D
:10151000FFF7F0F907B0F0BD00000140303802409D
:101520000000024070B5044690F8380001280DD044
:10153000012584F83850022084F8390042B1042A89
:101540000AD0082A0CD00C2A11D10DE0022070BD5F
:10155000206800F037FC0AE0206800F05BFC06E041
:10156000206800F083FC02E0206800F0ABFC84F807
:101570003950002084F8380070BD704710B5040061
:1015800003D094F8390010B107E0012010BD00200D
:1015900084F83800204600F00CF8022084F8390066
:1015A000211D206800F0A8FB012084F839000020EC
:1015B00010BD704770B5044690F838000D460128FC
:1015C0000DD0012684F83860022084F8390042B139
:1015D000042A18D0082A2AD00C2A4DD139E002203A
:1015E00070BD206800F0EEFB2068816941F00801C1
:1015F00081612068816921F004018161206881692D
:101600002A69114311E0206800F004FC2068816918
:1016100041F4006181612068816921F48061816108
:10162000206881692A6941EA0221816124E02068F9
:1016300000F01CFC2068C16941F00801C16120680C
:10164000C16921F00401C1612068C1692A6911439F
:1016500011E0206800F036FC2068C16941F40061A7
:10166000C1612068C16921F48061C1612068C169DC
:101670002A6941EA0221C16184F83960002084F8B6
:10168000380070BD10B5040003D094F8390010B1D3
:1016900007E0012010BD002084F83800204600F04B
:1016A0000CF8022084F83900211D206800F024FB8A
:1016B000012084F83900002010BD704770470000F9
:1016C00010B504460068012200F05EFB074920685F
:1016D000884203D1416C41F40041416420680168B3
:1016E00041F001010160002010BD00000000014038
:1016F0007047704770B5040004D094F83900002595
:1017000010B106E0012070BD84F83850204600F08A
:1017100023F8242084F839002068C16821F400519E
:10172000C160204600F014FC2068016921F490415A
:1017300001612068416921F02A0141612068C16886
:1017400041F40051C160E563202084F8390084F839
:101750003A00002070BD000010B586B00446142188
:101760006846FEF76BFD1349206888421FD1124876
:101770000021026842F400320260006800F4003088
:1017800005900D481038026842F0010202600068BE
:1017900000F0010005900C2000900220CDE901012D
:1017A0000720CDE9031069460448FFF7A3F806B007
:1017B00010BD0000004400404038024000000240DC
:1017C0002DE9F843044690F83A00994616460D462E
:1017D00020284FD195B18EB194F83800012849D016
:1017E000012084F838000027E763222084F83A00BB
:1017F000FFF74AF9A6858046E68531E00120BDE87D
:10180000F883E08D401EE085A0684346B0F5805F18
:101810004FF000024FF020012046CDF8009004D098
:1018200000F0ECFC98B10320E9E700F0E7FC0028A9
:10183000F9D1206900282068406803D0C1B225F89A
:10184000011B0DE0C0F3080125F8021B08E0206928
:1018500000282068406801D000F07F0005F8010BE7
:10186000E08D0028CDD1202084F83A0084F838702B
:101870000020C4E70220C2E72DE9F843044690F8AF
:1018800039001F4616460D46202850D1A5B19EB1FD
:1018900094F8380001284AD0012084F838004FF02D
:1018A0000008C4F83C80212084F83900FFF7ECF8E8
:1018B000A6848146E68426E00120BDE8F883E08C1A
:1018C000401EE084A0684B46B0F5805F4FF00002F8
:1018D0004FF080012046009703D000F08FFCE8B95C
:1018E0000DE000F08BFCC8B928882168C0F308001F
:1018F0004860206908B16D1C05E0AD1C03E021685B
:1019000015F8010B4860E08C0028D8D14B46002226
:1019100040212046009700F071FC08B10320CCE77D
:10192000202084F8390084F838800020C5E70220A0
:10193000C3E7FEE77FB500241048009401940294A9
:101940000D490394C0E900148460046184610C496A
:101950000462C0E90A140125C460C56145610463DD
:10196000FEF78DFE0620CDE9000569460294034886
:10197000FEF7DCFD7FBD00000020014014000020C8
:101980000100000F30B587B014216846FEF756FC01
:101990001E480024016841F004010160016801F063
:1019A00004010591016841F080010160016801F0C6
:1019B00080010591016841F001010160016801F0B9
:1019C00001010591016841F0020101600068104DBC
:1019D00000F002000590002220212846FFF74EF873
:1019E0004FF4005000900B48CDE9010469460A48C5
:1019F000FEF780FF202000900120CDE90104694618
:101A000028460394FEF776FF07B030BD3038024019
:101A100000000240000021100008024010B594B000
:101A200000240E940F941094119412941C21684673
:101A30001394FEF703FC1C2107A8FEF7FFFB2948BF
:101A40002749016040F28F61C0E9011440F2E7319B
:101A5000C0E903144461FFF798FB4FF480500E90E7
:101A60000EA92048FFF7F6FB1E48FFF70BFE1D48A6
:101A7000FFF784FD129412A91A481394FFF75DFB37
:101A80006020CDE90004029403940494059400229C
:101A9000694614480694FFF78DFD042269461148F3
:101AA000FFF788FD082269460E480094FFF73AFDCB
:101AB0000C2269460B48FFF735FD079408940994FA
:101AC0004FF400500A94CDE90B4007A905480D9446
:101AD000FFF706FB0348FFF7EBFC14B010BD000056
:101AE000000001405C00002010B58EB00024079477
:101AF000089409940A940B941C2168460C94FEF7F0
:101B00009DFB16484FF08041016040F28F61C0E9B3
:101B1000011440F2E731C0E90314FFF736FB4FF43C
:101B20008050079007A90D48FFF794FB0B48FFF77B
:101B3000A9FD0B940BA909480C94FFF7FEFA60204D
:101B4000CDE9000402940022694604480494FFF79A
:101B500031FD0248FFF7ACFC0EB010BD980000202C
:101B6000FEE770470907090E002806DA00F00F00AB
:101B700000F1E02080F8141D704700F1E02080F8AB
:101B800000147047704770472DE9F041064615462E
:101B90000F460846FEF720FE64213846FEF7CAFDD0
:101BA0003846FEF769FD04463846FEF773FEB4205A
:101BB000A4F5C874444340F26C7094FBF0F000EE5E
:101BC000100A06EB8600092190FBF1F02968193014
:101BD000B8EEC00A4863BDE8F081FEF75BBF0000C5
:101BE00030B593B030216846FEF728FB14210CA8CD
:101BF000FEF724FB1A480025016841F0805101607E
:101C0000006800F0805011901648016821F44041AE
:101C100041F4004101600068022400F4404011904A
:101C2000012000904FF4A02001906005CDE906400E
:101C3000042008905420CDE9090407200B90684641
:101C4000FFF7AAF80CA90F2081E83100E0020F90FD
:101C5000109002210CA8FEF7B7FF13B030BD0000B2
:101C600040380240007000401048016841F47001A3
:101C700001600F48016841F0010101600C4A002138
:101C80000832116002680B4B1A400260031D0A4AB9
:101C90001A60026822F48022026005480C3001605C
:101CA00002495806803908607047000088ED00E05E
:101CB00000380240FFFFF6FE103000240148FFF715
:101CC00043BB00005C0000200148FFF73DBB000063
:101CD0005C0000200148FFF737BB00005C000020DB
:101CE0000148FFF731BB00005C0000200148FFF70E
:101CF0002BBB000098000020F0B502681B4B1C4C69
:101D00009F031C4D1C4E984207D0B84205D0A042FC
:101D100003D0A84201D0B04204D122F0700C4A682E
:101D200042EA0C02984210D0B8420ED0A0420CD029
:101D3000A8420AD0B04208D0104CA04205D0104CA6
:101D4000A04202D00F4CA04203D122F44074CA68D2
:101D5000224302608A68C2620A688262984201D1A4
:101D60000969016301214161F0BD000000000140EB
:101D70000004004000080040000C0040004001400A
:101D8000004401400048014010B50123046A8B4023
:101D90009C430462036A8A401343036210BD10B57A
:101DA000846842EA032224F47F440A432243826087
:101DB00010BD826822F070020A4342F00701816080
:101DC0007047000030B5026A22F001020262026A26
:101DD0004368846924F073050C682C4322F00205E3
:101DE0008A682A430A4DA8420BD122F00805CA6826
:101DF00023F440732A434D6922F004021D438B698A
:101E00002B434360846149684163026230BD000036
:101E10000000014030B5026A22F010020262026A3C
:101E2000436884690D6824F4E64444EA05248D6817
:101E300022F0200242EA05120B4DA8420ED1CD68D5
:101E400022F0800242EA05124D6923F4406343EA1E
:101E500085038D6922F0400243EA85034360846173
:101E600049688163026230BD0000014030B5026AFA
:101E700022F480720262036A4268C46923F4007328
:101E800024F073050C682C438D6843EA05230C4D40
:101E9000A8420ED1CD6823F4006343EA05234D69BF
:101EA00022F4405242EA05128D6923F4806342EA2B
:101EB00005124260C4614968C163036230BD00001D
:101EC0000000014030B5026A22F480520262046AC6
:101ED0004268C3690D6823F4E64343EA05238D682D
:101EE00024F4005444EA0534064DA84204D14D6957
:101EF00022F4804242EA85124260C361496801646B
:101F0000046230BD0000014010B5036A046A24F089
:101F100001040462846924F0F00444EA021423F00A
:101F20000A020A438461026210BD10B5036A23F0FD
:101F3000100303628369046A23F4704343EA0232A4
:101F400024F0A00343EA01118261016210BD000088
:101F50002DE9F04104460068016921F44052E1682E
:101F6000114301612168C86849F20C6290432369FA
:101F7000A268E5691A4363692B431A430243CA60A6
:101F80002168486920F44072A06910434861E16902
:101F90006425B1F5004F9748974A21684FF0320801
:101FA0003FD0914201D081427CD1FEF7B5FE00EBDB
:101FB000C00101EB001061688900B0FBF1F6FEF78B
:101FC000ABFE00EBC00101EB001061688900B0FBC3
:101FD000F1F0B0FBF5F06FF01801484306EB80011B
:101FE00008EB0110B0FBF5F000F0F006FEF794FEF0
:101FF00000EBC00101EB001061688900B0FBF1F05B
:10200000B0FBF5F006EB0016FEF786FE00EBC00114
:1020100001EB001061688900B0FBF1F7FEF77CFE70
:10202000D2E0914201D081423DD1FEF775FE00EB36
:10203000C00101EB001061684900B0FBF1F0B0FB9A
:10204000F5F00601FEF768FE00EBC00101EB0010A1
:1020500061684900B0FBF1F7FEF75EFE00EBC001DE
:1020600001EB001061684900B0FBF1F0B0FBF5F046
:102070006FF01801484307EB800108EBC100B0FB8B
:10208000F5F000F0F80006EB4006FEF745FE00EB29
:10209000C00101EB001061684900B0FBF1F7FEF7E9
:1020A0003BFE3CE055E0FEF727FE00EBC00101EBF4
:1020B000001061684900B0FBF1F0B0FBF5F00601DB
:1020C000FEF71AFE00EBC00101EB00106168490049
:1020D000B0FBF1F7FEF710FE00EBC00101EB0010C2
:1020E00061684900B0FBF1F0B0FBF5F06FF018014A
:1020F000484307EB800108EBC100B0FBF5F000F0AE
:10210000F80006EB4006FEF7F7FD00EBC00101EB1F
:10211000001061684900B0FBF1F7FEF7EDFD00EB40
:10212000C00101EB001061684900B0FBF1F0B0FBA9
:10213000F5F06FF01801484307EB800108EBC10090
:10214000B0FBF5F000F00700216830448860BDE87E
:10215000F081FEF7D1FD00EBC00101EB00106168DA
:102160008900B0FBF1F6FEF7C7FD00EBC00101EB03
:10217000001061688900B0FBF1F0B0FBF5F06FF082
:102180001801484306EB800108EB0110B0FBF5F0A5
:1021900000F0F006FEF7B0FD00EBC00101EB00100F
:1021A00061688900B0FBF1F0B0FBF5F006EB0016BA
:1021B000FEF7A2FD00EBC00101EB00106168890091
:1021C000B0FBF1F7FEF798FD00EBC00101EB00104A
:1021D00061688900B0FBF1F0B0FBF5F06FF0180119
:1021E000484307EB800108EB0110B0FBF5F000F06D
:1021F0000F00A9E700140140001001402DE9F04153
:10220000984617460E460446069D1DE0681C1BD0E6
:102210002DB1FEF739FCA0EB0800A84214D92068C4
:10222000C16821F4D071C1602068416921F00101C9
:102230004161202084F8390084F83A00002084F8B5
:1022400038000320BDE8F0812068006836EA00000D
:1022500004D00020B842D9D00020F3E70120F9E7EC
:10226000FEE70000004870471000002002E008C8A8
:10227000121F08C1002AFAD170477047002001E000
:1022800001C1121F002AFBD17047000088B0FEF781
:1022900009FCFFF7A5FCFFF775FB2E4C2C480C2121
:1022A00020604FF4E13060600020A060E060C4E98D
:1022B0000401A061E0612046FFF71CFAFFF714FC5F
:1022C000FFF738FBFFF7AAFB0021A4F13C00FFF762
:1022D000F7F90C21A4F17800FFF7F2F9A4F13C0220
:1022E000A2F184015A20FFF74FFC6420FEF7F0FAB8
:1022F000A4F13C02A2F184016420FFF745FC6420B4
:10230000FEF7E6FAA4F13C02A2F184015A20FFF79D
:102310003BFC6420FEF7DCFA4FF47A752068006815
:102320008006FBD52B46202269460A48FFF748FA6B
:102330002B46202269460748FFF79EFA6846FDF7BC
:1023400088FF044A3C3AA2F18401FFF71DFCE5E74F
:1023500000440040D4000020000000000000000005
:10236000010203040607080900000000010203043B
:102370000040404040404040404041414141414098
:10238000404040404040404040404040404040404D
:1023900040050202020202020202020202020202DC
:1023A00002202020202020202020200202020202E1
:1023B0000202909090909090101010101010101039
:1023C0001010101010101010101010100202020245
:1023D0000202888888888888080808080808080889
:1023E0000808080808080808080808080202020285
:1023F000400000007123000818240008000000209D
:10240000140000006C2200082C2400081400002096
:10241000040500007C2200080100000010000000FC
:0C242000000000000024F4000000000098
:040000050800019559
:00000001FF
