:020000040800F2
:10000000D8040020A9010008571C00088F1A000816
:10001000551C0008A1080008452300080000000046
:100020000000000000000000000000007B1C000831
:10003000A308000800000000791C0008EF1C00085D
:10004000C3010008C3010008C3010008C301000880
:10005000C3010008C3010008C3010008C301000870
:10006000C3010008C3010008C3010008C301000860
:10007000C3010008C3010008C3010008C301000850
:10008000C3010008C3010008C3010008000000000C
:10009000000000000000000000000000C301000894
:1000A000C3010008C3010008C3010008C301000820
:1000B000D11D0008C3010008C3010008C3010008E6
:1000C000C3010008C3010008C3010008C301000800
:1000D000C3010008C3010008C301000800000000BC
:1000E000C3010008C3010008C301000800000000AC
:1000F000000000000000000000000000C301000834
:1001000000000000C3010008C3010008C30100088B
:1001100000000000000000000000000000000000DF
:10012000C3010008C3010008C3010008C30100089F
:10013000C3010008000000000000000000000000F3
:10014000000000000000000000000000C3010008E3
:10015000C3010008C3010008C3010008C30100086F
:10016000C3010008C30100080000000000000000F7
:10017000000000000000000000000000000000007F
:1001800000000000C30100080000000000000000A3
:10019000C3010008DFF80CD000F06EFA00480047F9
:1001A0004D2C0008D8040020064880470648004728
:1001B000FEE7FEE7FEE7FEE7FEE7FEE7FEE7FEE717
:1001C000FEE7FEE77D1D0008950100082DE9F05FC0
:1001D0000546002092469B468846064681464024B6
:1001E0001BE0284641464746224600F07CF853462D
:1001F0005A46C01A914110D311461846224600F0C3
:1002000063F82D1A67EB01084F46224601200021B2
:1002100000F05AF817EB00094E41201EA4F101042A
:10022000DFDC484631462A464346BDE8F09F40EAB7
:1002300001039B0703D009E008C9121F08C0042A64
:10024000FAD203E011F8013B00F8013B521EF9D24B
:100250007047D2B201E000F8012B491EFBD2704773
:100260000022F6E710B513460A4604461946FFF782
:10027000F0FF204610BD00F0004230F000400AD0F0
:10028000C10D01F56071C0F3160042EA0151C208C8
:1002900040071143704700200146704730B50B46B8
:1002A000014600202022012409E021FA02F59D42A6
:1002B00005D303FA02F5491B04FA02F52844151E7A
:1002C000A2F10102F1DC30BD202A04DB203A00FA61
:1002D00002F1002070479140C2F1200320FA03F39D
:1002E000194390407047202A04DB203A21FA02F09B
:1002F0000021704721FA02F3D040C2F12002914060
:100300000843194670472DE9FE4F804681EA0300F5
:10031000C00F0C46009021F0004123F00045B8EBDF
:100320000200A94105D24046214690461C460B4694
:10033000024623F00040104347D0270DC7F30A00C0
:10034000C3F30A510290401A019040286BDAC3F3BC
:10035000130040F4801B0098924620B10023D2EB9A
:10036000030A63EB0B0B01985946C0F1400250465B
:10037000FFF7AAFF06460D4650465946019A00F07F
:100380008DF910EB08006141002487EA115284EADC
:10039000E7731A4340D0009A62B3019A012A4FEAE8
:1003A000075215DC001B61EB02014FF0004202EA2C
:1003B0000752CDE90042001C41F5801132462B4620
:1003C00000F08DF903B0BDE8F08F40462146F9E713
:1003D000001B61EB0201001C41F5801300185B411A
:1003E0002018A2F5001747EB030140EAD570B619B3
:1003F0006D4111E06D084FEA360645EAC0754FEAD7
:100400000752001B61EB0201001C41F580114908F5
:100410004FEA30000019514132462B4603B0BDE887
:10042000F04F00F04DB90098012240000023D0EBBE
:10043000020263EBE073009821464FEAE074B8EBE8
:10044000000061EB0401E9E783F000435BE781F022
:10045000004158E72DE9FE4F81EA030404F000440F
:1004600021F0004100944FF0000B23F0004350EACC
:1004700001045ED052EA03045BD0C3F30A54C1F313
:100480000A552C44A4F2F3340194A0FB0254C1F3A6
:10049000130141F48011C3F3130343F4801301FBF0
:1004A000024400FB034E840A970A44EA815447EA57
:1004B0008357A4FB076802958D0A05FB07854FEA61
:1004C000932C04FB0C542705029D4FEA065847EA7B
:1004D0001637B5EB08056EEB070C870E920E47EA50
:1004E000811742EA8312A7FB0201B6EB0B0164EB12
:1004F00000042B0D43EA0C335E1844EB1C50DA4623
:100500005146E7FB0201C5F313044FEA0B3343EAFC
:1005100014534FEA0432019C43EA0603A4F10C048D
:100520000294009CCDE900B400F0D9F803B0BDE816
:10053000F08F00200146F9E72DE9F04D81EA030430
:1005400004F0004B21F0004514464FF0000A23F060
:10055000004150EA050220D054EA01021DD0C5F343
:100560000A570246C5F31303C1F31300C1F30A5639
:1005700040F4801543F48013A7EB0608101BD64601
:1005800008F2FD3873EB050002D308F1010801E021
:1005900092185B41B8F1000F03DA00200146BDE874
:1005A000F08D00204FF48011064684460EE0171BA4
:1005B00073EB050705D3121B63EB050306434CEAF7
:1005C000010C49084FEA300092185B4150EA0107DC
:1005D000EDD152EA030012D082EA040083EA050159
:1005E000084305D0101BAB4106D20122002306E0D0
:1005F00000224FF0004302E06FF0010253101AEBAB
:1006000006004CEB085110EB0A0041EB0B01BDE872
:10061000F04D00F055B8C1F30A52C1F3130140F296
:10062000FF3341F480119A4202DA002001467047FC
:1006300040F233439A42A2F2334202DC5242FFF7C5
:1006400052BEFFF741BE000030B5041E71F1000438
:1006500004DB4FF00044404264EB0101141E73F1CF
:10066000000405DB1C464FF00043524263EB0403D9
:10067000994208BF904230BD064C074D06E0E06845
:1006800040F0010394E8070098471034AC42F6D3D9
:10069000FFF784FD5C2D00087C2D0008202A06DB76
:1006A000CB17203A41FA02F043EAE07306E041FA40
:1006B00002F3D040C2F1200291400843194670472E
:1006C00010B5141E73F1000408DA401C41F100015A
:1006D00092185B411A4301D120F0010010BD2DE9B1
:1006E000F04D92469B4611B1B1FA81F202E0B0FAA8
:1006F00080F220329046FFF7E7FD04460F4640EABD
:100700000A0041EA0B0153465A46084313D01146EA
:1007100053EA010019D0C8F140025046FFF7E3FD4B
:1007200005460E46504659464246FFF7CDFD084362
:1007300005D0012004E020463946BDE8F08D0020B8
:10074000054346EAE0762C4337430A986305E40AFA
:10075000A0EB08000022FD0A44EA47540A3002D503
:1007600000200146E9E7010510196941DDE9084566
:1007700000196941BDE8F04DA2E70000454910B5F8
:100780004A6822F440324A604A6843681A434A6021
:1007900001684A6822F480724A6001684A68036905
:1007A00042EA03224A6001684A6822F040724A60C5
:1007B00001684A6883681A434A6001688A6822F4BB
:1007C00000628A6001688A68C3681A438A60816A25
:1007D0006FF07062D14201688A6822F070628A60AC
:1007E00001688A680CD0836A1A438A6001688A6843
:1007F00022F040528A6001688A68C36A1A4301E0A5
:1008000022F040528A6001688A6822F002028A60FF
:1008100001688A68836942EA43028A60016A0029A2
:1008200001684A680FD042F400624A6001684A6871
:1008300022F460424A6001684A68174C436A04EB3C
:1008400043331A4301E022F400624A600168CA6A35
:1008500022F47002CA620168CA6A838B0F4C04EBEF
:1008600003531A43CA6201688A6822F400728A60DC
:1008700001688A68036B42EA43228A6001688A68D9
:1008800022F480628A6001688A68406942EA8020B6
:10089000886010BD0023014000E0FFFF0000F0FF72
:1008A000FEE770477047000078B50024009490F888
:1008B0003C20012A19D0012280F83C200A68072335
:1008C0000568092A13D9EE680A3A02EB42029340FE
:1008D0009E43EE600B788A680A3B03EB43039A4021
:1008E0000368DD682A43DA6010E0022078BD2E69D3
:1008F00002EB420293409E432E610B788A6803EB21
:1009000043039A4003681D692A431A614A681F23FA
:10091000072A13D205686E6B521E02EB82029340C7
:100920009E436E630B790A885B1E92B203EB8303CE
:100930009A4003685D6B2A435A6327E005680D2AD5
:1009400012D22E6BD21F02EB820293409E432E6383
:100950000B790A88DB1F92B203EB83039A4003688A
:100960001D6B2A431A6311E0EE6A0D3A02EB820214
:1009700093409E43EE620B790A880D3B92B203EBE3
:1009800083039A400368DD6A2A43DA62164B0568DE
:10099000144A9D4206D10D68122D03D1556845F4C5
:1009A0008005556005689D4218D10B68102B01D059
:1009B000112B13D1536843F40003536009681029C5
:1009C0000CD10A490A4A0968B1FBF2F101EB810135
:1009D000490000E0491E00910029FBD180F83C400D
:1009E000002078BD00230140002001400C000020C1
:1009F00040420F000068C06C704770B504004FF0B3
:100A0000000503D0206C002610B107E0012070BD66
:100A1000666484F83C60204600F01AF8206CC0063A
:100A200010D4206C20F4885040F00200206420464E
:100A3000FFF7A4FE6664206C20F0020040F0010085
:100A4000206400E0012584F83C60284670BD000069
:100A500010B586B0044614216846FFF701FC114921
:100A6000206888421CD110480021026842F480723C
:100A70000260006800F4807005900B48143802682A
:100A800042F001020260006800F001000590402081
:100A900000900320CDE901016946044800F0E8F820
:100AA00006B010BD00200140443802400000024062
:100AB0002DE9F041044600680D4681684FF00007BB
:100AC00049050BD58068C00508D5206C40F0200092
:100AD000206484F83C700120BDE8F08100F092F9B8
:100AE00006460FE0681C0DD025B100F08BF9801B85
:100AF000A84207D9206C40F00400206484F83C70C0
:100B00000320E9E7206800688007EBD521686FF0D3
:100B100012000860206C40F4007020642068816836
:100B200011F0405F13D1A16989B9C16A11F4700F46
:100B300002D0806840050AD4206C20F480702064C4
:100B4000206CC00403D4206C40F00100206400201D
:100B5000C2E7000018B50021009190F83C20012A5E
:100B600007D0012280F83C2002689368DB0702D09E
:100B700011E0022018BD936843F001039360204AFE
:100B8000204B1268B2FBF3F202EB420200E0521E6D
:100B90000092002AFBD102689368DB072DD0036C1A
:100BA00040F20164A34343F48073036453685B051C
:100BB00005D5036C23F4005343F480530364036CA2
:100BC000DB0404D5436C23F00603436400E0416476
:100BD00080F83C100C496FF02203136049680068EC
:100BE000C90602D00949884207D1816811F0405FE7
:100BF00003D1816841F080418160002018BD000070
:100C00000C00002040420F00002301400020014062
:100C100090F83C1001290CD0012180F83C100168AB
:100C20008A6822F001028A6001688968C90702D0D7
:100C300007E002207047016C21F4885141F0010166
:100C40000164002180F83C100846704770B50446E6
:100C500000F0D8F80546601C02D00448007804442F
:100C600000F0D0F8401BA042FAD370BD0000002075
:100C70002DE9F84FDFF860B100224FF001084FF086
:100C8000030A4FF00F090BF1040E00BF0B6808FABE
:100C900002F42340A3426ED14D68022D01D0122DE3
:100CA0000ED1D50800EB850CDCF820505607F70E66
:100CB00009FA07F6B5430E69BE402E43CCF8206012
:100CC000066855000F790AFA05FC07F0030726EAC3
:100CD0000C06AF40374307604E68012E05D0022E48
:100CE00003D0112E01D0122E0ED18668CF6826EACD
:100CF0000C06AF40374387604668A6430C79C4F3BF
:100D00000014944034434460C6688C6826EA0C069C
:100D1000AC403443C4604C68E40056D52F4C256881
:100D200045F480452560246822F0030504F48044DE
:100D300000942B4C2E19D6F8084895072F0F09FA66
:100D400007F5AC43274DA84201D1002515E0264DFB
:100D5000A84201D1012510E0244DA84201D102256D
:100D60000BE0234DA84201D1032506E0214DA84206
:100D700002D1042501E028E00725BD402543C6F83F
:100D80000858DBF800405D464E689C43F60300D5EA
:100D90001C432C60DEF8004075464E689C43B60349
:100DA00000D51C432C600C4D08352C684E689C43C4
:100DB000F60200D51C432C60074D0C352C684E689C
:100DC0009C43B60200D51C432C60521C102AFFF431
:100DD0005DAFBDE8F88F0000003C014044380240A0
:100DE00000300140000002400004024000080240C0
:100DF000000C0240001002400AB1816170470904F2
:100E0000FBE70000014880687047000000000020F8
:100E10000248816802781144816070470000002018
:100E20000B4810B5016841F400710160016841F49C
:100E300080610160016841F480710160032000F06D
:100E40006FF8002000F006F800F024F8002010BD34
:100E5000003C024070B50D4D04464FF47A7128787D
:100E6000B1FBF0F00A490968B1FBF0F000F0E0FADC
:100E700048B9102C07D200222146501E00F030F84D
:100E800000206C6070BD012070BD000000000020DB
:100E90000C0000200B4882B0016841F480410160E1
:100EA000006800F4804000900648001F016841F08F
:100EB00080510160006800F080500090072002B06F
:100EC00000F02EB84438024000F01F02012191408A
:100ED0004009800000F1E020C0F8001170470000D8
:100EE000F0B40E4B1B680C46C3F30223C3F1070595
:100EF000042D00D90425191D072901D2002300E083
:100F0000DB1E012606FA05F1491E214099409E404C
:100F1000761E16403143F0BC00F09EBE0CED00E0A2
:100F2000064900F0070208684FF6FF03184040EA40
:100F30000220034A10430860704700000CED00E0F7
:100F40000000FA052DE9F0470E46050065D0DFF8F0
:100F50001481D8F80000F7B200F00F00B04207D2B9
:100F600088F80070D8F8000000F00F00B04254D1AB
:100F700028683D4C810712D5400703D5206840F40E
:100F8000E05020602878000703D5206840F46040D6
:100F900020602068A96820F0F000084320602878CD
:100FA000C0072DD0304968680839012812D00228BE
:100FB00013D0032811D00968890700292DDA216888
:100FC00021F0030101432160FFF71CFF814641F23C
:100FD000883A0EE009688903EFE709688901ECE7C0
:100FE000FFF710FFA0EB0901514502D90320BDE82E
:100FF000F0872068696800F00C00B0EB810FEFD13A
:10100000D8F80010404601F00F01B14207D907702F
:10101000006800F00F00B04201D00120E7E7287817
:10102000400705D52068E96820F4E05008432060B7
:101030002878000706D52068296920F4604040EA36
:10104000C100206000F036F82168084AC1F303119E
:10105000515CC840064908600020FFF7FBFE0020F5
:10106000C5E70000003C024008380240442D00085B
:101070000C0000200448054900680968044AC1F3CF
:101080008221515CC84070470C00002008380240A3
:10109000542D00080448054900680968044AC1F352
:1010A0004231515CC84070470C00002008380240B3
:1010B000542D0008154810B5006810F00C021448B3
:1010C00013D04110042A0FD0082A0ED10F4C241F30
:1010D0002268236802F03F025B0207D52068C0F354
:1010E0008810A0FB010106E0084610BD2168C1F38D
:1010F0008811A1FB00010023FFF768F82168C1F304
:101100000141491C4900B0FBF1F010BD0838024014
:101110000024F4002DE9F84F050076D02878DFF898
:10112000F8B2BE4CC00749D0DBF800105846C1F3F6
:101130008101012908D00068C0F3810002280AD18A
:10114000201D0068400206D52068800336D56868F7
:101150000028E2D032E06868B0F5803F10D0B0F5EA
:10116000A02F206810D020F480302060206820F468
:10117000802020606868A0B1FFF744FE06460CE0BE
:10118000206840F48030F4E740F480202060F7E7E6
:10119000FFF738FE801B642873D820688003F7D5DA
:1011A0000CE0FFF72FFE064605E000BFFFF72AFE22
:1011B000801B6428F0D820688003F7D42878DFF8F3
:1011C000608280074FF000093ED5DBF800105846DA
:1011D00011F00C0F09D00068C0F3810002280BD178
:1011E0008D48001F0068400206D42068800715D58E
:1011F000E868012809D111E0E868B8B10120C8F811
:101200000000FFF7FFFD064605E002E1FFF7FAFDEB
:10121000801B0228C0D820688007F7D5206829697C
:1012200020F0F80040EAC10020600DE0C8F800900E
:10123000FFF7E8FD064604E0FFF7E4FD801B022807
:101240001FD820688007F7D42878000722D5724E6F
:10125000744869696C3671B101210160FFF7D2FDF4
:10126000074604E0FFF7CEFDC01B022809D830680E
:101270008007F7D50EE0C0F80090FFF7C3FD0746E2
:1012800005E083E0FFF7BEFDC01B02287ED8306872
:101290008007F7D42878400768D5DFF87CA10027BD
:1012A0000AF1380ADAF80000C0000BD4DAF80010AE
:1012B00041F08051CAF80010DAF80000012700F070
:1012C00080500090584E3068C00510D4306840F40B
:1012D00080703060FFF796FD009005E0FFF792FD0B
:1012E0000099401A022851D83068C005F6D54A4EF8
:1012F000A868683601280FD00528306810D020F083
:1013000001003060306820F004003060A868B8B197
:10131000FFF778FD00900FE0306840F00100F4E73F
:1013200040F004003060F7E7FFF76CFD0099411AC8
:1013300041F28830814264D830688007F4D50EE0ED
:10134000FFF760FD009007E0FFF75CFD0099411A90
:1013500041F28830814254D830688007F4D42FB1EC
:10136000DAF8001021F08051CAF80010A869C0B363
:10137000DBF80010C1F3810102294AD00228484657
:1013800007D0C8F86000FFF73DFD00E039E00546F2
:101390003AE04746C8F86000FFF734FD064604E02F
:1013A000FFF730FD801B02282BD820688001F7D47E
:1013B000D5E907010843A96A1C4A490802EB014123
:1013C0006A6A41EA8211084395F82C1040EA0161EB
:1013D0001148001F016001203866FFF713FD054624
:1013E00005E014E0FFF70EFD401B022809D8206835
:1013F0008001F7D50BE000BFFFF704FD401B02287A
:1014000002D90320BDE8F88F20688001F4D40020C1
:10141000F8E70120F6E700000838024000380240F3
:1014200000004742800E4742007000400000FFFF6E
:1014300010B5401EB0F1807F01D3012010BD4FF0E8
:10144000E02460610F21601700F006FC0020A0611D
:1014500007202061002010BD7047704730B590F81C
:101460003820012A20D0012280F83820022380F879
:10147000393003685C6824F070045C6003685C6861
:101480000D682C435C6003689C6824F080049C60B9
:1014900003689C6849680C439C6080F839200021EF
:1014A00080F83810084630BD022030BD10B5040069
:1014B00003D094F8390010B107E0012010BD0020DE
:1014C00084F83800204600F00DF8022084F8390036
:1014D000211D206800F082FC012084F839000020E2
:1014E00010BD000008B50068B0F1804F12D10A4865
:1014F000016841F0010101600068002200F0010074
:10150000009011461C20FFF7EBFCBDE808401C20B2
:10151000FFF7DABC08BD00004038024070B5044651
:1015200090F83800012817D0012584F8385002209F
:1015300084F839002068826822F0770222F47F4222
:1015400082600868502837D00DDC202859D005DC8F
:1015500088B3102841D151E0022070BD302853D00B
:1015600040283AD13FE060282ED070280BD0B0F54B
:10157000805F03D0B0F5005F2FD110E02068816854
:1015800021F0070115E0CB68D1E90121206800F0C6
:1015900078FC2168886840F0770088601DE0CB689F
:1015A000D1E90121206800F06CFC2068816841F4D9
:1015B0008041816011E01EE0CA684968206800F03F
:1015C00015FD5021206806E0CA684968206800F0CF
:1015D0001EFD6021206800F05EFC84F83950002078
:1015E00084F8380070BDCA684968206800F0FEFCC5
:1015F00040212068EFE700212068ECE710212068F7
:10160000E9E720212068E6E730212068E3E770471A
:1016100070B50446006801694FF00005C9438907A9
:1016200015D4C168C943890711D4E91E016101209D
:101630002076206880698007204602D0FFF7E7FF08
:1016400004E000F0C1F8204600F043F92576206858
:101650000169C943490717D4C168C943490713D46D
:101660006FF004010161022020762068806910F487
:10167000407F204602D0FFF7CAFF04E000F0A4F844
:10168000204600F026F9257620680169C94309073C
:1016900016D4C168C943090712D46FF0080101616B
:1016A000042020762068C0698007204602D0FFF71A
:1016B000AEFF04E000F088F8204600F00AF9257635
:1016C00020680169C943C90617D4C168C943C9065E
:1016D00013D46FF010010161082020762068C069E2
:1016E00010F4407F204602D0FFF791FF04E000F0A5
:1016F0006BF8204600F0EDF8257620680169C943B3
:10170000C90708D1C168C943C90704D1891E01614D
:10171000204600F0F7F820680169C943090609D49A
:10172000C168C943090605D46FF0800101612046F4
:10173000FFF792FE20680169C943490609D4C168D0
:10174000C943490605D46FF040010161204600F00D
:10175000DAF820680169C94389060BD4C168C94316
:10176000890607D46FF0200101612046BDE8704072
:10177000FFF773BE70BD000010B586B0044614219B
:101780006846FEF76DFD2068B0F1804F15D10C481A
:101790000021026842F0010202600068022200F0AB
:1017A0000100059001200090CDE901210321CDE940
:1017B000031069460348FFF75BFA06B010BD00004E
:1017C0003038024000000240704770B5044690F87F
:1017D00038000D4601280DD0012684F8386002201B
:1017E00084F8390042B1042A18D0082A2AD00C2AD9
:1017F0004DD139E0022070BD206800F055FB206813
:10180000816941F0080181612068816921F004014A
:101810008161206881692A69114311E0206800F024
:101820006BFB2068816941F40061816120688169F6
:1018300021F480618161206881692A6941EA02217D
:10184000816124E0206800F083FB2068C16941F0D9
:101850000801C1612068C16921F00401C1612068EB
:10186000C1692A69114311E0206800F09DFB2068DE
:10187000C16941F40061C1612068C16921F48061DE
:10188000C1612068C1692A6941EA0221C16184F805
:101890003960002084F8380070BD10B5040003D012
:1018A00094F8390010B107E0012010BD002084F841
:1018B0003800204600F00CF8022084F83900211D81
:1018C000206800F08BFA012084F83900002010BD58
:1018D0007047704710B504460068012200F0C6FA50
:1018E00007492068884203D1416C41F400414164BA
:1018F0002068016841F001010160002010BD000076
:10190000000001407047704770B5040004D094F89F
:101910003900002510B106E0012070BD84F8385070
:10192000204600F023F8242084F839002068C1689C
:1019300021F40051C160204600F07CFB2068016961
:1019400021F4904101612068416921F02A0141613F
:101950002068C16841F40051C160E563202084F82B
:10196000390084F83A00002070BD000010B586B040
:10197000044614216846FEF773FC13492068884228
:101980001FD112480021026842F400320260006850
:1019900000F4003005900D481038026842F0010252
:1019A0000260006800F0010005900C200090022009
:1019B000CDE901010720CDE9031069460448FFF78E
:1019C00057F906B010BD0000004400404038024006
:1019D000000002402DE9F843044690F839001F4604
:1019E00016460D46202850D1A5B19EB194F8380076
:1019F00001284AD0012084F838004FF00008C4F8CC
:101A00003C80212084F83900FFF7FCF9A684814648
:101A1000E68426E00120BDE8F883E08C401EE084E7
:101A2000A0684B46B0F5805F4FF000024FF0800198
:101A30002046009703D000F053FCE8B90DE000F019
:101A40004FFCC8B928882168C0F3080048602069A5
:101A500008B16D1C05E0AD1C03E0216815F8010B11
:101A60004860E08C0028D8D14B4600224021204617
:101A7000009700F035FC08B10320CCE7202084F863
:101A8000390084F838800020C5E70220C3E7FEE76C
:101A90007FB50024134800940194029410490394E4
:101AA000C0E900148460046184610F490462C0E9E4
:101AB0000A140125C460C56145610463FEF79DFFFA
:101AC00008B1FEF7EFFE0620CDE900056946029455
:101AD0000448FEF7E9FE002801D0FEF7E3FE7FBDD3
:101AE00000200140100000200100000F30B587B039
:101AF00014216846FEF7B4FB1E480024016841F03B
:101B000004010160016801F004010591016841F0E0
:101B100080010160016801F080010591016841F0D8
:101B200001010160016801F001010591016841F0C6
:101B3000020101600068104D00F0020005900022D3
:101B400020212846FFF758F94FF4005000900B4829
:101B5000CDE9010469460A48FFF78AF82020009081
:101B60000120CDE90104694628460394FFF780F877
:101B700007B030BD303802400000024000002110A4
:101B80000008024010B58EB0002407940894099410
:101B90000A940B941C2168460C94FEF761FB1E48C6
:101BA0004FF08041016040F28F61C0E9011440F2C2
:101BB000E731C0E90314FFF779FC08B1FEF772FEC4
:101BC0004FF48050079007A91348FFF7A7FC08B10E
:101BD000FEF768FE1048FFF760FE08B1FEF762FEF0
:101BE0000B940BA90C480C94FFF738FC08B1FEF7D6
:101BF00059FE6020CDE9000402940022694606489F
:101C00000494FFF7E2FD08B1FEF74CFE0248FFF72F
:101C1000B3FD0EB010BD0000580000200C4810B5F8
:101C20000A4901604FF4E1314160002181600C22DA
:101C3000C160C0E904128161C161FFF765FE00283F
:101C400003D0BDE81040FEF72DBE10BD004400409B
:101C500094000020FEE770470907090E002806DA05
:101C600000F00F0000F1E02080F8141D704700F133
:101C7000E02080F800147047704770470FB42DEDD6
:101C8000020B10B52DED028BB0EE408A06A8FEF7D0
:101C900061FF642106A8FEF70BFF06A8FEF7AAFE67
:101CA000044606A8FEF7B4FFF1EE040AF2EE021AAB
:101CB00068EE200AB420A4F5C874444380EEA11A4B
:101CC00040F26C7094FBF0F0F3EE090A00EE100A9B
:101CD0001899B8EEC00A71EE200AFDEEE00A10EE87
:101CE000900A4863BDEC028B10BC5DF81CFBFFF74B
:101CF0008FB8000030B593B030216846FEF7B0FAD7
:101D000014210CA8FEF7ACFA1A480025016841F02E
:101D100080510160006800F0805011901648016801
:101D200021F4404141F4004101600068022400F4C4
:101D300040401190012000904FF4A02001906005D8
:101D4000CDE90640042008905420CDE9090407207D
:101D50000B906846FFF7DEF90CA90F2081E83100EF
:101D6000E0020F90109002210CA8FFF7EBF813B0DF
:101D700030BD00004038024000700040104801684B
:101D800041F4700101600F48016841F001010160F8
:101D90000C4A00210832116002680B4B1A400260A5
:101DA000031D0A4A1A60026822F480220260054874
:101DB0000C30016002495806803908607047000005
:101DC00088ED00E000380240FFFFF6FE10300024EE
:101DD0000148FFF71DBC000058000020F0B5026864
:101DE0001B4B1C4C9F031C4D1C4E984207D0B84205
:101DF00005D0A04203D0A84201D0B04204D122F0C5
:101E0000700C4A6842EA0C02984210D0B8420ED0D8
:101E1000A0420CD0A8420AD0B04208D0104CA04238
:101E200005D0104CA04202D00F4CA04203D122F4A6
:101E30004074CA68224302608A68C2620A68826289
:101E4000984201D10969016301214161F0BD00009F
:101E5000000001400004004000080040000C004069
:101E600000400140004401400048014010B50123FA
:101E7000046A8B409C430462036A8A4013430362F2
:101E800010BD10B5846842EA032224F47F440A435B
:101E90002243826010BD826822F070020A4342F041
:101EA000070181607047000030B5026A22F001022C
:101EB0000262026A4368846924F073050C682C434B
:101EC00022F002058A682A430A4DA8420BD122F06B
:101ED0000805CA6823F440732A434D6922F00402BE
:101EE0001D438B692B4343608461496841630262EF
:101EF00030BD00000000014030B5026A22F010023F
:101F00000262026A436884690D6824F4E64444EA84
:101F100005248D6822F0200242EA05120B4DA842EA
:101F20000ED1CD6822F0800242EA05124D6923F4F9
:101F3000406343EA85038D6922F0400243EA85034A
:101F40004360846149688163026230BD00000140E2
:101F500030B5026A22F480720262036A4268C46980
:101F600023F4007324F073050C682C438D6843EA56
:101F700005230C4DA8420ED1CD6823F4006343EA3B
:101F800005234D6922F4405242EA05128D6923F47B
:101F9000806342EA05124260C4614968C16303621A
:101FA00030BD00000000014030B5026A22F48052CA
:101FB0000262046A4268C3690D6823F4E64343EA97
:101FC00005238D6824F4005444EA0534064DA842E4
:101FD00004D14D6922F4804242EA85124260C36115
:101FE00049680164046230BD0000014010B5036A15
:101FF000046A24F001040462846924F0F00444EAD1
:10200000021423F00A020A438461026210BD10B573
:10201000036A23F0100303628369046A23F47043A4
:1020200043EA023224F0A00343EA01118261016213
:1020300010BD00002DE9F04104460068016921F45B
:102040004052E168114301612168C86849F20C629D
:1020500090432369A268E5691A4363692B431A43D5
:102060000243CA602168486920F44072A0691043A5
:102070004861E1696425B1F5004F9748974A2168A6
:102080004FF032083FD0914201D081427CD1FFF71E
:1020900001F800EBC00101EB001061688900B0FBA2
:1020A000F1F6FEF7F7FF00EBC00101EB00106168ED
:1020B0008900B0FBF1F0B0FBF5F06FF01801484378
:1020C00006EB800108EB0110B0FBF5F000F0F00624
:1020D000FEF7E0FF00EBC00101EB00106168890032
:1020E000B0FBF1F0B0FBF5F006EB0016FEF7D2FF07
:1020F00000EBC00101EB001061688900B0FBF1F753
:10210000FEF7C8FFD2E0914201D081423DD1FEF7F7
:10211000C1FF00EBC00101EB001061684900B0FB9A
:10212000F1F0B0FBF5F00601FEF7B4FF00EBC001E3
:1021300001EB001061684900B0FBF1F7FEF7AAFF60
:1021400000EBC00101EB001061684900B0FBF1F049
:10215000B0FBF5F06FF01801484307EB800108EB86
:10216000C100B0FBF5F000F0F80006EB4006FEF70A
:1021700091FF00EBC00101EB001061684900B0FB6A
:10218000F1F7FEF787FF3CE055E0FEF773FF00EB49
:10219000C00101EB001061684900B0FBF1F0B0FB39
:1021A000F5F00601FEF766FF00EBC00101EB001041
:1021B00061684900B0FBF1F7FEF75CFF00EBC0017E
:1021C00001EB001061684900B0FBF1F0B0FBF5F0E5
:1021D0006FF01801484307EB800108EBC100B0FB2A
:1021E000F5F000F0F80006EB4006FEF743FF00EBC9
:1021F000C00101EB001061684900B0FBF1F7FEF788
:1022000039FF00EBC00101EB001061684900B0FB31
:10221000F1F0B0FBF5F06FF01801484307EB8001D7
:1022200008EBC100B0FBF5F000F007002168304476
:102230008860BDE8F081FEF71DFF00EBC00101EBF7
:10224000001061688900B0FBF1F6FEF713FF00EBA8
:10225000C00101EB001061688900B0FBF1F0B0FB38
:10226000F5F06FF01801484306EB800108EB011010
:10227000B0FBF5F000F0F006FEF7FCFE00EBC0014D
:1022800001EB001061688900B0FBF1F0B0FBF5F0E4
:1022900006EB0016FEF7EEFE00EBC00101EB0010AE
:1022A00061688900B0FBF1F7FEF7E4FE00EBC001C6
:1022B00001EB001061688900B0FBF1F0B0FBF5F0B4
:1022C0006FF01801484307EB800108EB0110B0FBE9
:1022D000F5F000F00F00A9E70014014000100140E4
:1022E0002DE9F041984617460E460446069D1DE02E
:1022F000681C1BD02DB1FEF785FDA0EB0800A8429D
:1023000014D92068C16821F4D071C1602068416986
:1023100021F001014161202084F8390084F83A005D
:10232000002084F838000320BDE8F08120680068B0
:1023300036EA000004D00020B842D9D00020F3E7EC
:102340000120F9E7FEE700000FB4084B10B504A91F
:1023500002AA039800F0DEF8044602A9002000F06B
:1023600070FC204610BC5DF814FB0000432C0008F4
:1023700002E008C8121F08C1002AFAD1704770474E
:10238000002001E001C1121F002AFBD170470000AC
:102390002DE9FF5F82B00021DDE90430020DDDF898
:1023A00040B0034318D044F61050A2F2FF3242432B
:1023B0001514119801281FD0A5EB0B00401C5FEAF3
:1023C000000A4FF000064E4FDFF83891B0465046F5
:1023D00015D5CAF1000413E0119801244AA301287D
:1023E00001D16FEA0B010298119AC0E90031C0E9EE
:1023F000024206B0BDE8F09FCBF10000DFE70446E3
:102400000021404A491842EB0450CDE9001012E087
:10241000E00707D032463B4640464946FEF71AF8E9
:102420008046894632463B4610461946FEF712F86A
:1024300006460F466410002CEAD1DDE90401DDE90F
:102440000023BAF1000F06DAFEF704F842464B46C5
:10245000FEF700F805E0FEF76FF842464B46FEF740
:102460006BF804460E460022284BFEF7EDF803D821
:102470004FF0FF30014607E00022254B2046314651
:10248000FDF741FFFEF7C7F8102409E0002C0ADB36
:102490000A220023FDF79AFE039B30321A55641E70
:1024A00050EA0102F2D1641C039AC4F111031444EE
:1024B000119A012A03D0012208430DD10AE00843F2
:1024C00004D000204FF0110B119072E7A3EB0B0525
:1024D0006D1E0DE05B4504DD4FF0000205F10105C6
:1024E00004E003DA4FF00002A5F10105002AECD068
:1024F00002981199C0E90231C0E9004579E700006E
:10250000000014400000F03F300000000000F043E5
:102510000000E03F2DE9FF4F95B09B4689460646F7
:1025200000250FE2252877D100242746F84A01210B
:10253000059400E0044316F8013F203B01FA03F044
:102540001042F7D130782A2811D06FF02F0330785D
:10255000A0F13002092A16D8059A44F0020402EBD1
:10256000820203EB42021044761C0590EFE759F813
:10257000042B0592002A03DA504244F400540590DB
:1025800044F00204761C30782E2816D116F8010F7C
:1025900044F004042A280DD06FF02F023078A0F107
:1025A0003003092B09D807EB870302EB4303C71855
:1025B000761CF3E759F8047B761C30786C280FD032
:1025C00006DC4C2817D068280DD06A2814D104E006
:1025D000742810D07A280FD10DE044F400140AE0DA
:1025E00044F4801401E044F440147278824202D131
:1025F00004F58014761C761C307866280BD013DC2A
:10260000582877D009DC002875D04528F6D0462810
:10261000F4D047281AD19DE118E0632835D064280A
:1026200079D0652812D195E1702873D008DC67282D
:10263000F1D069286FD06E280DD06F2806D1B5E093
:1026400073282CD0752875D0782874D05A461799DD
:1026500090476D1C75E1C4F30250022809D003288D
:102660000DD0D9F8001004280DD00D6009F104092F
:1026700067E1D9F80010EA17C1E90052F6E7D9F886
:1026800000100D80F2E70D70F0E719F8041B8DF8CB
:10269000001000208DF80100EA46012003E059F8FF
:1026A00004AB4FF0FF3061074FF0000102D40DE0A2
:1026B00008F101018846B9420FDA8045F8DB1AF8C3
:1026C00008100029F4D108E008F101018846814290
:1026D000FADB1AF808100029F6D105985B46A0EB42
:1026E000080721463846179A00F094FA284400EB70
:1026F000080507E04DE029E10DE01AF8010B5A4604
:1027000017999047B8F10108F7D25B462146384641
:10271000179A13E142E00A220092C4F302524FF0EA
:10272000000A022A08D059F804CB032A4FEAEC71B8
:102730000AD00DE029E02AE009F1070121F00702A3
:10274000F2E802C1914609E00FFA8CFC4FEAEC7105
:10275000042A03D14FFA8CFC4FEAEC71002907DA06
:102760000A460021DCF1000C61EB02012D2202E09F
:10277000220504D52B228DF80420012203E0E20774
:1027800001D02022F7E7904659E00A2102E010220A
:102790000DE010214FF0000A00910BE010224FF0E5
:1027A000000A44F004040827009203E008224FF0D6
:1027B000000A0092C4F30252022A05D059F804CB51
:1027C0000021032A08D009E009F1070121F00702DE
:1027D000F2E802C1914605E01FFA8CFC042A01D1FF
:1027E0000CF0FF0C4FF00008220728D5702806D007
:1027F000009B83F0100353EA0A0305D00EE0402249
:102800008DF80420012208E05CEA010206D03022A3
:102810008DF804208DF8050002229046009B83F07D
:10282000080353EA0A030AD15CEA010201D16207F4
:1028300005D530228DF804204FF001087F1E58285E
:1028400004D034A003900EA802900DE036A0F9E762
:1028500053466046009AFDF7B9FC84460398825CB3
:102860000298401E029002705CEA0100F0D10298CA
:1028700006A9081A00F1200A600702D524F4803462
:1028800000E00127574502DDA7EB0A0000E0002029
:1028900000EB0A01009005984144401A0590E003BE
:1028A00006D45B462146179A059800F0B3F9054413
:1028B000002706E001A85A46C05D179990476D1C95
:1028C0007F1C4745F6DBE0030CD55B462146179A93
:1028D000059800F09FF9054404E030205A46179906
:1028E00090476D1C0099481E00900029F5DC08E017
:1028F000029802995A460078491C0291179990470C
:102900006D1CBAF10001AAF1010AF1DC65E10000D9
:1029100009280100303132333435363738396162B5
:102920006364656600000000303132333435363779
:1029300038394142434445460000000000F058F950
:102940000544761C307800287FF4ECAD19B0284699
:10295000BDE8F08F620700D4062709F1070222F0D4
:10296000070CFCE80223E14603F000485FEA080C8C
:1029700002D00FF2702C0DE05FEA045C02D50FF27A
:10298000682C07E05FEAC47C02D00FF2602C01E003
:10299000AFF2700C4FF0FF3823F00043CDF850C079
:1029A00065280CD006DC452809D046281DD04728CC
:1029B0003DD13DE0662818D067287ED138E000215F
:1029C000112F01DB112000E0781CCDE9000106A9E0
:1029D0000EA8FFF7DDFCDDE90F010E9A039100213F
:1029E000009207F1010A04914DE04FF0004000977A
:1029F000CDE9011006A90EA8FFF7CAFCDDE90F0218
:102A000003920E9B11990022DDF80CA00093049212
:102A100011B9791C00EB010AB7EB0A0004D4C0F12C
:102A2000FF3007F1010A0490AAEB0700019044E08F
:102A3000012F00DA01270021112F01DD112000E014
:102A40003846CDE9000106A90EA8FFF7A1FCDDE993
:102A50000F010E9A0391002104910092BA462107BA
:102A60000CD40399514500DA8A46BAF1010F05DD0D
:102A7000009AAAF10101515C302908D0B84202DA6B
:102A800010F1040F06DA0121CDE9011015E0AAF1D9
:102A90000101E9E7002805DC049901440491AAEB4F
:102AA000000102E0411C514500DD8A460499401AAC
:102AB000401C01904FF000400290200704D4019880
:102AC000504501DBCDF8048000208DF84F000298BE
:102AD0000DF14F07B0F1004F25D02B200E9002983A
:102AE0004FF0020800280CDA404202902D200E9090
:102AF00007E00A210298FDF7D1FB3031029007F878
:102B0000011DB8F10001A8F10108F2DC02980028CB
:102B1000EFD1791E0E980870307800F0200040F058
:102B2000450007F8020D12A8C01B00F10708149811
:102B3000007800B1012000EB0A01019801EBE0717F
:102B400005984144401A401E0590E00306D45B46B8
:102B50002146179A059800F05DF80544149800780E
:102B600018B15A46179990476D1CE00324D55B466F
:102B70002146179A059800F04DF805441CE004988A
:102B8000002807DBDDE90301884203DD0098405C93
:102B9000179901E0179930205A469047049805F19B
:102BA0000105401C04900198401E019004D12E2084
:102BB0005A46179990476D1CBAF10001AAF1010A13
:102BC000DDDC05E017F8010B5A46179990476D1C9C
:102BD000B8F10001A8F10108F4DC5B462146179A20
:102BE0000598ABE62D0000002B000000200000003F
:102BF0002DE9F041044600251E461746880404D4FA
:102C000005E039462020B0476D1C641EF9D52846E2
:102C1000BDE8F0812DE9F041044600251E469046AE
:102C2000C80301D5302700E02027880404D505E03B
:102C300041463846B0476D1C641EF9D52846BDE8AC
:102C4000F0810A68531C0B60107070472DED028BE9
:102C5000C6B0FEF7E5F8FFF74DF8FEF747FFFEF7C1
:102C6000DDFFFEF78FFFFEF713FF00212F48FEF771
:102C700031FE2E4D3224286844636420FDF7E6FFC0
:102C8000286844634FF47A773846FDF7DFFF284C15
:102C90009FED288A21AE2648FDF75CFF6421244879
:102CA000FDF706FF2248FDF7A5FE2148FDF7B0FF1E
:102CB00039221E492FA8FDF7BAFA95F839008DF888
:102CC000F50034221A491DA8FDF7B1FA606B2A906D
:102CD000A06BE16BCDE92B01206C2D90606C2E90E8
:102CE0003C222FA90EA8FDF7A2FA382231466846E9
:102CF000FDF79DFA0DF1740CB0EE480A9CE80F0048
:102D0000FEF7BCFF10EE100AFDF7B5FA41EC100B10
:102D100009A153EC102B3EA8FFF716FB82B23B46ED
:102D20003EA90748FEF756FEB5E700005800002010
:102D300010000020000070420D0A252E303466007D
:102D400094000020000000000000000001020304C5
:102D50000607080900000000010203047C2D00089A
:102D60000000002010000000702300088C2D0008D7
:102D700010000020C80400008023000801000000AB
:0C2D800010000000000000000024F4001F
:040000050800019559
:00000001FF
